{
  "address": "0xb9a5d6A11676FD7F442D0a4b2551f77a4A369Bc3",
  "abi": [
    {
      "inputs": [],
      "stateMutability": "nonpayable",
      "type": "constructor"
    },
    {
      "anonymous": false,
      "inputs": [
        {
          "indexed": false,
          "internalType": "address",
          "name": "nftContract",
          "type": "address"
        },
        {
          "indexed": false,
          "internalType": "uint256",
          "name": "tokenId",
          "type": "uint256"
        },
        {
          "indexed": false,
          "internalType": "string",
          "name": "contractStandard",
          "type": "string"
        }
      ],
      "name": "NewTreasure",
      "type": "event"
    },
    {
      "anonymous": false,
      "inputs": [
        {
          "indexed": true,
          "internalType": "address",
          "name": "previousOwner",
          "type": "address"
        },
        {
          "indexed": true,
          "internalType": "address",
          "name": "newOwner",
          "type": "address"
        }
      ],
      "name": "OwnershipTransferred",
      "type": "event"
    },
    {
      "inputs": [
        {
          "internalType": "address",
          "name": "",
          "type": "address"
        },
        {
          "internalType": "address",
          "name": "from",
          "type": "address"
        },
        {
          "internalType": "uint256",
          "name": "tokenId",
          "type": "uint256"
        },
        {
          "internalType": "bytes",
          "name": "",
          "type": "bytes"
        }
      ],
      "name": "onERC721Received",
      "outputs": [
        {
          "internalType": "bytes4",
          "name": "",
          "type": "bytes4"
        }
      ],
      "stateMutability": "nonpayable",
      "type": "function"
    },
    {
      "inputs": [],
      "name": "owner",
      "outputs": [
        {
          "internalType": "address",
          "name": "",
          "type": "address"
        }
      ],
      "stateMutability": "view",
      "type": "function"
    },
    {
      "inputs": [],
      "name": "renounceOwnership",
      "outputs": [],
      "stateMutability": "nonpayable",
      "type": "function"
    },
    {
      "inputs": [
        {
          "internalType": "address",
          "name": "newOwner",
          "type": "address"
        }
      ],
      "name": "transferOwnership",
      "outputs": [],
      "stateMutability": "nonpayable",
      "type": "function"
    }
  ],
  "transactionHash": "0x5073a7f8c57905ef27e306bb17b2a082118949ff3e2fa17a49e89f77fd22dfeb",
  "args": [],
  "solcInputHash": "7efe7766d6fd161588d684f1cee97f45",
  "bytecode": "0x608060405234801561001057600080fd5b5061001a3361001f565b61006f565b600080546001600160a01b038381166001600160a01b0319831681178455604051919092169283917f8be0079c531659141344cd1fd0a4f28419497f9722a3daafe3b4186f6b6457e09190a35050565b6107928061007e6000396000f3fe608060405234801561001057600080fd5b506004361061004c5760003560e01c8063150b7a0214610051578063715018a61461009a5780638da5cb5b146100a4578063f2fde38b146100cc575b600080fd5b61006461005f366004610628565b6100df565b6040517fffffffff0000000000000000000000000000000000000000000000000000000090911681526020015b60405180910390f35b6100a2610389565b005b60005460405173ffffffffffffffffffffffffffffffffffffffff9091168152602001610091565b6100a26100da3660046106c7565b6103fc565b6000806100eb60015490565b6040517f6352211e000000000000000000000000000000000000000000000000000000008152600481018790529091506000903390636352211e9060240160206040518083038186803b15801561014157600080fd5b505afa158015610155573d6000803e3d6000fd5b505050506040513d601f19601f8201168201806040525081019061017991906106eb565b905073ffffffffffffffffffffffffffffffffffffffff811630146101e55760405162461bcd60e51b815260206004820152601360248201527f4e6f742061207265616c207472616e736665720000000000000000000000000060448201526064015b60405180910390fd5b6040805160c0810182526006608082019081527f455243373231000000000000000000000000000000000000000000000000000060a083015281523360208083019190915273ffffffffffffffffffffffffffffffffffffffff8a16828401526060820189905260008581526002825292909220815180519293919261026e928492019061056d565b506020828101516001830180547fffffffffffffffffffffffff000000000000000000000000000000000000000090811673ffffffffffffffffffffffffffffffffffffffff93841617909155604080860151600286018054909316931692909217905560609384015160039093019290925581513381529081018590529081018290526006918101919091527f455243373231000000000000000000000000000000000000000000000000000060808201527fb190619d66959040b877ec68763527400556d06832c8e987be4982e46f48978a9060a00160405180910390a161035c600180546001019055565b507f150b7a0200000000000000000000000000000000000000000000000000000000979650505050505050565b60005473ffffffffffffffffffffffffffffffffffffffff1633146103f05760405162461bcd60e51b815260206004820181905260248201527f4f776e61626c653a2063616c6c6572206973206e6f7420746865206f776e657260448201526064016101dc565b6103fa60006104f8565b565b60005473ffffffffffffffffffffffffffffffffffffffff1633146104635760405162461bcd60e51b815260206004820181905260248201527f4f776e61626c653a2063616c6c6572206973206e6f7420746865206f776e657260448201526064016101dc565b73ffffffffffffffffffffffffffffffffffffffff81166104ec5760405162461bcd60e51b815260206004820152602660248201527f4f776e61626c653a206e6577206f776e657220697320746865207a65726f206160448201527f646472657373000000000000000000000000000000000000000000000000000060648201526084016101dc565b6104f5816104f8565b50565b6000805473ffffffffffffffffffffffffffffffffffffffff8381167fffffffffffffffffffffffff0000000000000000000000000000000000000000831681178455604051919092169283917f8be0079c531659141344cd1fd0a4f28419497f9722a3daafe3b4186f6b6457e09190a35050565b82805461057990610708565b90600052602060002090601f01602090048101928261059b57600085556105e1565b82601f106105b457805160ff19168380011785556105e1565b828001600101855582156105e1579182015b828111156105e15782518255916020019190600101906105c6565b506105ed9291506105f1565b5090565b5b808211156105ed57600081556001016105f2565b73ffffffffffffffffffffffffffffffffffffffff811681146104f557600080fd5b60008060008060006080868803121561064057600080fd5b853561064b81610606565b9450602086013561065b81610606565b935060408601359250606086013567ffffffffffffffff8082111561067f57600080fd5b818801915088601f83011261069357600080fd5b8135818111156106a257600080fd5b8960208285010111156106b457600080fd5b9699959850939650602001949392505050565b6000602082840312156106d957600080fd5b81356106e481610606565b9392505050565b6000602082840312156106fd57600080fd5b81516106e481610606565b600181811c9082168061071c57607f821691505b60208210811415610756577f4e487b7100000000000000000000000000000000000000000000000000000000600052602260045260246000fd5b5091905056fea2646970667358221220bcfc0ca024f506a7a58cf5b9337298a0a1d16af77a65060d4bd7ec823599b30964736f6c63430008090033",
  "devdoc": {
    "kind": "dev",
    "methods": {
      "owner()": {
        "details": "Returns the address of the current owner."
      },
      "renounceOwnership()": {
        "details": "Leaves the contract without owner. It will not be possible to call `onlyOwner` functions anymore. Can only be called by the current owner. NOTE: Renouncing ownership will leave the contract without an owner, thereby removing any functionality that is only available to the owner."
      },
      "transferOwnership(address)": {
        "details": "Transfers ownership of the contract to a new account (`newOwner`). Can only be called by the current owner."
      }
    },
    "version": 1
  },
  "userdoc": {
    "kind": "user",
    "methods": {},
    "version": 1
  },
  "storageLayout": {
    "storage": [
      {
        "astId": 7,
        "contract": "src/HideServVault/HideServVault.sol:HideServVault",
        "label": "_owner",
        "offset": 0,
        "slot": "0",
        "type": "t_address"
      },
      {
        "astId": 445,
        "contract": "src/HideServVault/HideServVault.sol:HideServVault",
        "label": "_tokenIdCounter",
        "offset": 0,
        "slot": "1",
        "type": "t_struct(Counter)343_storage"
      },
      {
        "astId": 450,
        "contract": "src/HideServVault/HideServVault.sol:HideServVault",
        "label": "treasureDetails",
        "offset": 0,
        "slot": "2",
        "type": "t_mapping(t_uint256,t_struct(TreasureDetails)460_storage)"
      }
    ],
    "types": {
      "t_address": {
        "encoding": "inplace",
        "label": "address",
        "numberOfBytes": "20"
      },
      "t_contract(IERC721)297": {
        "encoding": "inplace",
        "label": "contract IERC721",
        "numberOfBytes": "20"
      },
      "t_mapping(t_uint256,t_struct(TreasureDetails)460_storage)": {
        "encoding": "mapping",
        "key": "t_uint256",
        "label": "mapping(uint256 => struct HideServVault.TreasureDetails)",
        "numberOfBytes": "32",
        "value": "t_struct(TreasureDetails)460_storage"
      },
      "t_string_storage": {
        "encoding": "bytes",
        "label": "string",
        "numberOfBytes": "32"
      },
      "t_struct(Counter)343_storage": {
        "encoding": "inplace",
        "label": "struct Counters.Counter",
        "members": [
          {
            "astId": 342,
            "contract": "src/HideServVault/HideServVault.sol:HideServVault",
            "label": "_value",
            "offset": 0,
            "slot": "0",
            "type": "t_uint256"
          }
        ],
        "numberOfBytes": "32"
      },
      "t_struct(TreasureDetails)460_storage": {
        "encoding": "inplace",
        "label": "struct HideServVault.TreasureDetails",
        "members": [
          {
            "astId": 452,
            "contract": "src/HideServVault/HideServVault.sol:HideServVault",
            "label": "contractStandard",
            "offset": 0,
            "slot": "0",
            "type": "t_string_storage"
          },
          {
            "astId": 455,
            "contract": "src/HideServVault/HideServVault.sol:HideServVault",
            "label": "ERC721contract",
            "offset": 0,
            "slot": "1",
            "type": "t_contract(IERC721)297"
          },
          {
            "astId": 457,
            "contract": "src/HideServVault/HideServVault.sol:HideServVault",
            "label": "source",
            "offset": 0,
            "slot": "2",
            "type": "t_address"
          },
          {
            "astId": 459,
            "contract": "src/HideServVault/HideServVault.sol:HideServVault",
            "label": "tokenId",
            "offset": 0,
            "slot": "3",
            "type": "t_uint256"
          }
        ],
        "numberOfBytes": "128"
      },
      "t_uint256": {
        "encoding": "inplace",
        "label": "uint256",
        "numberOfBytes": "32"
      }
    }
  }
}